:020000040800F2
:100000004805002001010008672300085118000876
:10001000652300084F040008712700080000000055
:10002000000000000000000000000000452400085F
:100030009D0400080000000069230008EF24000868
:100040001B0100081B0100081B0100081B01000820
:100050001B0100081B0100081B0100081B01000810
:100060001B0100081B0100081B0100081B01000800
:100070001B0100081B01000885040008910400080A
:100080001B0100081B0100081B0100081B010008E0
:100090001B0100081B0100081B0100081B010008D0
:1000A0001B0100081B0100081B0100081B010008C0
:1000B0001B0100081B0100081B010008551800085F
:1000C0001B0100081B0100081B0100081B010008A0
:1000D0001B010008652700081B0100081B01000820
:1000E0001B0100081B0100081B010008DFF80CD0F1
:1000F00000F040F800480047B129000848050020FA
:100100000648804706480047FEE7FEE7FEE7FEE7B1
:10011000FEE7FEE7FEE7FEE7FEE7FEE75125000803
:10012000ED000008D2B201E000F8012B491EFBD21D
:1001300070470022F6E710B513460A4604461946F2
:10014000FFF7F0FF204610BD30B50B4601460020FA
:100150002022012409E021FA02F59D4205D303FA89
:1001600002F5491B04FA02F52844151EA2F101020A
:10017000F1DC30BD064C074D06E0E06840F00103BD
:1001800094E8070098471034AC42F6D3FFF7B2FF6B
:10019000782A0008982A000810B502F013F801F038
:1001A000F9FF702000F02EF902F0E0F8A82000F02E
:1001B00029F902F0DBF8002000F024F902F0D6F86B
:1001C000002000F01FF902F0D1F802F07EF90A20B9
:1001D00000F065F901F0DEFF702000F013F902F085
:1001E000C5F8BE2000F00EF902F0C0F8082000F0BB
:1001F00009F902F0BBF8002000F004F902F0B6F8AB
:1002000002F063F9BDE810400A2000F048B9000090
:100210002DE9F041002502F0D7F802F0DDF80820C2
:1002200002F049F90024114F02F0C6F800F051F92C
:1002300000268021384600F0B1FB00B1012646EAD5
:100240004500C5B200224021384600F0ACFB00F06A
:1002500040F9641CE4B2082CE6D302F0BDF8082093
:1002600002F029F92846BDE8F0810000000C0140A9
:100270002DE9F0418AB0002406468DF81C408DF827
:1002800020408DF810408DF80C408DF818408DF806
:1002900014408DF81C40274625460194029400F036
:1002A0008AF8502000F0FBF840F2E45807E040469E
:1002B00002F001F928466D1CADB2642803D200F0AB
:1002C00069F80006F3D401F065FF712000F09AF898
:1002D00002F04CF8FFF79CFF8DF81C008DF804002D
:1002E00002F0B1F8FFF794FF8DF820008DF80500BB
:1002F00002F0A9F8FFF78CFF8DF810008DF80600CA
:1003000002F0A1F8FFF784FF8DF80C008DF80700CC
:1003100002F099F8FFF77CFF8DF818008DF80800BF
:1003200002F091F8FFF774FF8DF814008DF80900C2
:1003300002F089F8FFF76CFF8DF81C0002F09FF8BF
:1003400002F0C3F8062101A800F082F89DF81C1005
:1003500088421CD19DF820009DF81010074341EA07
:1003600007209DF80C1041EA0020000930609DF83C
:100370000C009DF8181041EA00209DF8141041EA85
:100380000020C0F3130070600AB0BDE8F081346053
:100390007460F9E710B501F0FDFE712000F032F84D
:1003A00001F0E4FFFFF734FF044602F068F802F0C2
:1003B0008CF8204610BD10B501F0ECFE702000F066
:1003C00021F801F0D3FFAC2000F01CF801F0CEFFC3
:1003D000332000F017F801F0C9FF002000F012F8F8
:1003E00001F0C4FFBDE8104002F06FB810B51B204B
:1003F00001F00CFF1C2001F009FFBDE810401E2099
:1004000001F004BF70B505468026002401F0DCFF32
:1004100000F050F82E4202D001F0ECFF01E001F0B4
:10042000FDFF01F0C9FF00F045F86806641C050EE9
:10043000E4B2082CEAD301F0C7FF082002F03BF831
:1004400001F0CAFFBDE87040082002F034B8FEE7B2
:1004500070B50446FF20002231250FE0A35C584010
:100460000823060602D585EA400000E040005B1E36
:10047000C0B213F0FF03F4D1521CD2B28A42EDD3C2
:1004800070BD0000014800F0AFB80000000100207E
:10049000014800F0A9B80000BC000020704710B56A
:1004A00003464FF47A7402E0204602F004F85B1E23
:1004B000FAD210BD00B5012000F01DF8012000F0B7
:1004C0001AF8012000F017F801205DF804EB00F0A5
:1004D00012B800B5012000F00EF8012000F00BF872
:1004E000012000F008F8012000F005F801205DF877
:1004F00004EBAFF30080401EFDD2704772B6FEE7FA
:1005000010B590F821100022022905D00421816342
:1005100080F82020012010BD01680B6823F00E0335
:100520000B6001680B6823F001030B6090F840300A
:10053000C46B012101FA03F3636080F8211080F895
:100540002020104610BD000010B590F821100024A6
:10055000022903D00421816301243DE001680A6877
:1005600022F00E020A6001680A6822F001020A60A5
:100570001A4A0168914201D1012121E0174A14323F
:10058000914201D110211BE0144A2832914201D13D
:10059000891515E0114A3C32914201D189140FE0CE
:1005A0000E4A5032914202D14FF4803108E00B4A9A
:1005B0006432914202D14FF4801101E04FF080711A
:1005C000064A083A5160012180F82110002180F884
:1005D0002010416B01B18847204610BD0800024041
:1005E00090F82100704700002DE9F05FC16B0C68A6
:1005F00001680B68D0F840C0042202FA0CF2494DA1
:10060000DFF824A1494E4A4FDFF828B1DFF828E18E
:1006100022422CD05A072AD50A68920603D40A68C7
:1006200022F004020A600168A94201D1042219E003
:10063000514501D1402215E0B14202D14FF4806210
:1006400010E0B94202D14FF480420BE0594502D18B
:100650004FF4802206E0714502D14FF4800201E0A0
:100660004FF080622F4908394A60C16A3BE04FF081
:10067000020808FA0CF818EA040F4FF000094FF0CE
:10068000010235D05FEA837832D50B689B0605D42A
:100690000B6823F00A030B6080F821200168A9424F
:1006A00001D1022219E0514501D1202215E0B142C9
:1006B00002D14FF4007210E0B94202D14FF400525F
:1006C0000BE0594502D14FF4003206E0714502D1EA
:1006D0004FF4001201E04FF00072124908394A60ED
:1006E00080F82090816A00291AD0BDE8F05F0847A1
:1006F000082505FA0CF5254212D01B0710D50B680A
:1007000023F00E030B6090F84010C36B02FA01F166
:100710005960826380F8212080F82090016BE2E725
:10072000BDE8F09F080002401C000240300002407B
:1007300044000240580002406C00024030B528B32B
:1007400008C8134914221944B1FBF2F18900C163AE
:1007500010498163022141771A6843F6F0718A4398
:10076000D0E900142143D0E902452C432143046918
:1007700021434469214384692143114319600021C5
:100780004163012242770177084630BD012030BD28
:10079000F8FFFDBF0000024070B5044600F008F904
:1007A0000546601C02D004480078044400F000F9BB
:1007B000401BA042FAD370BD100000202DE9F84F75
:1007C000DFF8B891002409F1040A0AF1040B23466A
:1007D0000F270BF1040EC9E00125A5402A40AA42CB
:1007E0007DD1674ED1F804C0ACEB0608B44532D0D9
:1007F00014DCBCF1030F3AD009DCBCF1000F2AD0A5
:10080000BCF1010F1CD0BCF1020F31D11DE0BCF1D5
:10081000110F17D0BCF1120F2AD119E0B8F5881FBB
:1008200019D006DCB8F5803F15D0B8F5801F1FD170
:1008300011E0B8F5001F0ED0B8F5041F18D10AE07A
:10084000CB6815E0CB681B1D12E0CB6808330FE0C6
:10085000CB680C330CE08B682BB1012B4FF00803F5
:1008600003D0456104E0042302E0056100E00023B9
:10087000FF2A01D8064601E000F104064FEA84058C
:1008800001D9A5F12005D6F8008007FA05FC28EA71
:100890000C0803FA05F548EA0508C6F800804D681B
:1008A000ED0062D5374DAE6946F00106AE61AD6927
:1008B00024F0030605F001050095334D06EB050C09
:1008C000DCF80850A607360F07FA06F825EA0805EF
:1008D000DFF8B880404503D14FF0000817E044E04E
:1008E000DFF8AC80404502D14FF001080FE0DFF89F
:1008F000A480404502D14FF0020808E0DFF898805C
:10090000404502D14FF0030801E04FF0040808FA17
:1009100006F848EA0508CCF808804D68D9F8006068
:10092000ED034D4601D5164300E096432E604D6819
:10093000DAF80060AD03554601D5164300E0964352
:100940002E604D68DBF80060ED025D4601D5164370
:1009500000E096432E604D68DEF80060AD027546FB
:1009600001D5164300E096432E60641C0D682A46AC
:10097000E5407FF431AFBDE8F88F0000000401408E
:10098000000011100010024000000140000801406A
:10099000000C014000100140001401408068084034
:1009A00000D0012070470AB1016170470904FBE7DC
:1009B00001488068704700001000002070477047B1
:1009C0002DE9F047026800215368C66A90F83E405E
:1009D00090F83D50102C12D0402C10D0046C002CFC
:1009E0007DD05469E443A6077AD4DE43B60577D4B4
:1009F000036C03B19169BDE8F04701F0F9BA97695A
:100A000051694FF42A0CC9435FEAC1784FF02A4973
:100A100004D066452AD04E4528D010E0DE43B60506
:100A20000DD4C16A614501D1012103E0C16A494584
:100A300001D10821C162BDE8F04701F043BA0E07B9
:100A400016D4DE43B60513D4416CC9B21161416BB3
:100A500009B1896A29B9816B002907D0896A0029FF
:100A600004D00068416841F400614160BDE8F0874E
:100A70008E0706D4DE43B60503D4BDE8F04701F087
:100A800075B9FE43526876074FEA02521DD4002A18
:100A9000ECDB0A0608D4DA43520505D4490705D52C
:100AA000BDE8F04701F006B94907DFD4D94389050D
:100AB000DCD4212D05D0402CD8D1BDE8F04701F081
:100AC00047BABDE8F04701F0B3B8002ACEDB4A06CA
:100AD0000BD4DA43520508D4490708D501E00DE0EC
:100AE0000EE0BDE8F04701F02FB84907BED4D94366
:100AF0008905BBD4BDE8F04700F0BCBF916970E741
:100B0000E10606D4D943890503D4BDE8F04701F0D6
:100B100093BA2821212D27D0292D25D0650655D41B
:100B2000DD436D0552D4640752D590F83D30448DB5
:100B3000002C9BD01269446A2270426A521C4262A5
:100B4000428D521E4285428D002A8FD12A2B8DD193
:100B50000268536823F4806353602222026380F8A2
:100B60003D1000F047F981E7250623D4DD436D05EC
:100B700020D4640720D590F83D30448D002CF2D06D
:100B8000446A24781461426A521C4262428D521EA9
:100B90004285428D002AE6D1292BE4D102685368B0
:100BA00023F4806353602122026380F83D1000F03B
:100BB00022F95BE76107D6D4D9438905D3D4418DA7
:100BC0000029D0D0416A097811610AE06107CAD4CE
:100BD000D9438905C7D4418D0029C4D01169426A1F
:100BE0001170416A491C4162418D491E41853DE7B2
:100BF0007047000070B5040025D094F83D00002532
:100C000020B984F83C50204600F0BEF8242084F837
:100C10003D002068016821F0010101602068016841
:100C200041F4004101602068016821F40041016045
:100C300000F010FA4D4A6168914201D84C4900E039
:100C40004C49884201D2012070BD4B492368B0FB5A
:100C5000F1F15E6826F03F060E435E6063689342E2
:100C600006D94FF4967359434FF47A73B1FBF3F1FD
:100C70002368491C1E6A26F03F06314319626168E9
:100C8000914210D84900401EB0FBF1F2521CC2F351
:100C90000B02042A01D2042022E0B0FBF1F0401C38
:100CA000C0F30B001CE0A268F2B301EBC10303EB3D
:100CB0000116431EB3FBF6F35B1C43F480431B0594
:100CC00049D092B301EBC10202EB0111401EB0FB0F
:100CD000F1F0401CC0F30B0040F4804040F40040B1
:100CE0002168CA694CF6FF739A431043C861D4E97E
:100CF000071001432068026822F0C002114301601E
:100D0000D4E9030101432068826848F2FF339A4323
:100D100011438160D4E9050108432168CA6822F0C3
:100D2000FF021043C86001E00EE016E02068016891
:100D300041F0010101602564202084F83D00256315
:100D400084F83E50002070BD01EB4106431EB3FB0A
:100D5000F6F35B1CB3E70120C2E701EB4101401E43
:100D6000B0FBF1F0401CC0F30B00B7E7A086010018
:100D700080841E0000093D0040420F00704770470C
:100D8000704770477047000010B586B00021009191
:100D900001910291039100681349884222D1134CBA
:100DA000A06940F00800A061A069694600F0080051
:100DB0000490C020009012200190032003900C4862
:100DC000FFF7FCFCE06940F40010E061E0690022FC
:100DD00000F40010049011461F2000F073F81F204B
:100DE00000F062F806B010BD005400400010024050
:100DF000000C014070477047024881680278114436
:100E00008160704710000020074810B5016841F06C
:100E100010010160032000F075F80F2000F006F8C3
:100E200000F024F8002010BD0020024070B50D4DE8
:100E300004464FF47A712878B1FBF0F00A4909684A
:100E4000B1FBF0F000F0ECFA48B9102C07D2002208
:100E50002146501E00F036F800206C6070BD012065
:100E600070BD0000100000201C0000200C4808B5D8
:100E7000816941F001018161816901F00101009105
:100E8000C16941F08051C161C06900F0805000909B
:100E90000448416821F0E06141F00071416008BD03
:100EA0000010024000000140002809DB00F01F0292
:100EB000012191404009800000F1E020C0F80011BC
:100EC00070470000F0B40E4B1B680C46C3F30223BE
:100ED000C3F10705042D00D90425191D072901D2E6
:100EE000002300E0DB1E012606FA05F1491E214021
:100EF00099409E40761E16403143F0BC01F04ABC3A
:100F00000CED00E0064900F0070208684FF6FF0309
:100F1000184040EA0220034A10430860704700006E
:100F20000CED00E00000FA052DE9F0470F46050042
:100F300061D0434E306800F00700B84209D23068F3
:100F400020F0070038433060306800F00700B842F6
:100F500051D128683B4C810712D5400703D5606802
:100F600040F4E06060602878000703D5606840F4D2
:100F7000605060606068A96820F0F000084360601D
:100F80002878C00728D06868012810D02168022876
:100F900010D0890700292EDA616821F0030101438E
:100FA0006160FFF705FD804641F288390DE0216858
:100FB0008903EFE78901EDE7FFF7FAFCA0EB0801F1
:100FC000494502D90320BDE8F0876068696800F0F0
:100FD0000C00B0EB810FEFD1306800F00700B84291
:100FE0000BD9306820F0070038433060306800F0DB
:100FF0000700B84201D00120E5E72878400705D571
:101000006068E96820F4E0600843606028780007C1
:1010100006D56068296920F4605040EAC10060602C
:1010200000F038F86168084AC1F30311515CC84008
:101030000649086006480068FFF7F8FE0020C2E78E
:101040000020024000100240602A00081C0000201E
:10105000140000200448054900684968044AC1F3A7
:101060000221515CC84070471C0000200010024063
:10107000702A00080448054900684968044AC1F319
:10108000C221515CC84070471C0000200010024083
:10109000702A000812A185B00FC98DE80F0014A0B6
:1010A000144A006804905168134801F00C03042BA3
:1010B00010D0082B0ED1C1F38343C9031DF80300E0
:1010C0000AD5516804AAC1F34041515C0A4A504311
:1010D000B0FBF1F005B0704708494843FAE700005B
:1010E00002030405060708090A0B0C0D0E0F101069
:1010F000010200000010024000127A0000093D00C9
:101100002DE9F84F040070D02078C04DC00749D0B9
:101110006868C0F38100012807D06868C0F38100C7
:10112000022809D16868C00306D52868800339D52C
:1011300060680028E7D035E06068B0F5803F0BD0EC
:1011400010B1B0F5A02F11D0286820F480302860AD
:10115000286820F4802002E0286840F4803028606D
:10116000606890B1FFF724FC06460AE0286840F466
:1011700080202860F0E700BFFFF71AFC801B64287E
:1011800073D828688003F7D50CE0FFF711FC0646FA
:1011900005E000BFFFF70CFC801B6428F0D828682E
:1011A0008003F7D420789A4E80074FF001094FF062
:1011B000000839D5686810F00C0F07D06868C0F3D4
:1011C0008100022809D16868C00306D42868800716
:1011D00014D52069012808D110E02069B0B1C6F803
:1011E0000090FFF7E5FB074605E00AE1FFF7E0FBAB
:1011F000C01B0228C4D828688007F7D52868616911
:1012000020F0F80040EAC10028600DE0C6F8008038
:10121000FFF7CEFB074604E0FFF7CAFBC01B02281E
:1012200023D828688007F7D4207800072CD5794880
:10123000A169D9B1C0F80090FFF7BAFB074604E0F6
:10124000FFF7B6FBC01B02280FD8686A8007F7D5E6
:1012500071484FF4FA510068B0FBF1F0009000BF04
:101260000098411E0091FAD20EE080E0C0F80080A4
:10127000FFF79EFB074604E0FFF79AFBC01B02281E
:1012800075D8686A8007F7D42078400760D5E86988
:101290000027C00008D4E86940F08050E861E869A0
:1012A000012700F0805000905C480168C90513D404
:1012B0000168834641F480710160FFF779FB824643
:1012C00006E000BFFFF774FBA0EB0A0064284ED8CD
:1012D000DBF80000C005F5D5E06801280AD008B1A8
:1012E000052813D0286A20F001002862286A20F01F
:1012F000040002E0286A40F001002862E06841F240
:10130000883B98B1FFF754FB82460BE0286A40F017
:1013100004002862EEE700BFFFF74AFBA0EB0A01DA
:1013200059455AD8286A8007F6D50CE0FFF740FBEC
:10133000824605E0FFF73CFBA0EB0A0159454CD87B
:10134000286A8007F6D41FB1E86920F08050E86170
:10135000E06988B36968C1F38101022944D0022899
:10136000C6F8608004D0FFF723FB044638E034E081
:10137000FFF71EFB074604E0FFF71AFBC01B02281D
:101380002BD828688001F7D4206AB0F5803F05D1BA
:101390006868A16820F4003008436860D4E9080157
:1013A0000843696821F4741108436860C6F86090C6
:1013B000FFF7FEFA044606E025E000BFFFF7F8FA63
:1013C000001B022809D828688001F7D51BE000BF60
:1013D000FFF7EEFA001B022802D90320BDE8F88FC0
:1013E00028688001F4D40EE00128F7D06868226AEA
:1013F00000F48031914204D1616A00F47010884297
:1014000001D00120EAE70020E8E7000000100240D8
:1014100000004242800442421C0000200070004054
:1014200010B5401EB0F1807F01D3012010BD4FF0F8
:10143000E02460610F21601701F0ACF90020A06189
:1014400007202061002010BD70477047F8B5026882
:1014500004461068D168536910F00F0F4FF0000573
:1014600053D003F0010601F4907737435FD0C207F1
:1014700005D0CA0503D5226C42F00102226442075E
:1014800005D5DA0703D0226C42F0020222648207FB
:1014900005D5DA0703D0226C42F004022264020769
:1014A00007D501F02002324303D0226C42F008023B
:1014B0002264226C002A34D0800604D5880602D526
:1014C000204601F066F820684069216CC0F3801066
:1014D000090700D430B3204601F043F82068416981
:1014E00049061BD5416921F040014161A06BA8B1BB
:1014F00058494163A06BFFF727F8002811D0A06B73
:10150000416B01B0BDE8F040084783060FD58B065C
:101510000DD52046BDE8F84001F03BB82046FFF766
:1015200094FFF8BD2046FFF790FF2564F8BD266BB9
:101530002023012E52D1C60650D5CE064ED51068B6
:1015400050680090506940062AD5A16B0868406831
:101550000004000CEAD0A68D8642E7D9E0858869B0
:10156000202818D0D06820F48070D06020684169AD
:1015700021F0010141612068416921F04001416190
:1015800084F83E3025632068C16821F01001C160F5
:10159000A06BFEF7B5FFA08DE18D401A81B219E076
:1015A000A08DE18D401A81B2E08D0028BED00029C7
:1015B000BCD0D06820F49070D0602068426922F0DE
:1015C0000102426184F83E3025632068C26822F03F
:1015D0001002C2602046FFF737FFF8BD05062BD585
:1015E0000D0629D594F83D002128F6D1A068B0F564
:1015F000805F01D12069B0B1206A411C216221685D
:1016000000784860E08C401E0004000CE084E4D1C7
:101610002068C16821F08001C1602068C16841F084
:101620004001C160F8BD206A0088C0F30800506026
:10163000206A801C2062E5E74006F3D54806F1D514
:10164000D168204621F04001D16084F83D3000F09F
:10165000FEF8F8BD5325000870B5040004D094F8D6
:101660003D00002510B106E0012070BD84F83C501B
:10167000204600F023F8242084F83D002068C1684B
:1016800021F40051C160204600F0DEFF20680169AE
:1016900021F4904101612068416921F02A014161F2
:1016A0002068C16841F40051C1602564202084F89D
:1016B0003D0084F83E00002070BD0000F0B585B00C
:1016C00000240646009401940294039400682D4976
:1016D000884254D12C48816941F4804181618169FB
:1016E00001F480410491816941F0040181618069C4
:1016F000264D00F0040004904FF40070009002208A
:1017000001900320039069462846FFF757F82815F3
:10171000CDE90004694628460294FFF74FF81D4DB5
:101720001B488027C5E90004C5E902472C616C61AC
:10173000AC612846EC61FFF701F808B1FEF7DEFE68
:10174000B5636E62134D12484435143801C510203C
:1017500091C5104845F8104944306C61AC61EC61AA
:10176000FEF7ECFF08B1FEF7C9FE756300221146D3
:1017700025206E62FFF7A6FB2520FFF795FB05B03D
:10178000F0BD000000380140001002400008014098
:1017900058000240BC000020704700002DE9F843CB
:1017A000044690F83D001F4616460D4620284CD1B1
:1017B000C5B1BEB194F83C00012846D0012084F8A0
:1017C0003C004FF00008C4F84080212084F83D0020
:1017D000FFF7EEF8A6848146E684A068B0F5805F46
:1017E00003D004E00120BDE8F883206928B12E462B
:1017F0005FF0000584F83C800EE00026FAE78021C7
:10180000204600F07DFFA0B9AEB116F8010B2168AB
:101810004860E08C401EE084E08C4B464FF00002B4
:1018200000970028EBD14FF04001204600F068FF00
:1018300030B10320D7E735F8020BC0F30800E6E724
:10184000202084F83D000020CDE70220CBE7704740
:10185000FEE700000148FFF7B3B8000024000020B5
:1018600038B5406A002190F83D202B4B46F2A81471
:101870001B68B3FBF4F3C3EBC30303EB83030093D5
:101880003BB15B1E009303681B689B0505D5009B5D
:10189000F6E7036C43F020030364436B03B19962E2
:1018A000836B03B1996203681C6824F480641C6034
:1018B0004185436B03B15963836B03B1596303687B
:1018C0001C6824F001041C6090F83D402023602C2B
:1018D0000BD0282434EA02020FD080F83D3080F883
:1018E0003E1000BFFFF784F938BD80F83D3080F826
:1018F0003E100164FFF762F838BD0268136843F0D8
:10190000010313600268136843F48063136001638A
:1019100080F83D40E6E700001C00002070B504465A
:1019200090F83D0094F83E10102901D0402906D1CE
:10193000222804D121680A6822F400620A60282162
:1019400031EA00024FF000054FF0200626D0216852
:101950004968090505D4602803D084F83D6084F8FF
:101960003E50256320684168090537D5416821F458
:1019700000614160606B3D4990F82120012A11D03F
:101980004163606BFEF7E0FD38B32068016821F029
:101990000101016084F83D60606B1CE0256384F800
:1019A0003D10DFE7A06B4163A06BFEF7CDFDA0B15A
:1019B00020684169C943490605D40069616A087015
:1019C000606A401C60622068016821F001010160CA
:1019D00084F83D60A06B416B884710E094F83D109F
:1019E000602910D04169C943490605D40069616A7C
:1019F0000870606A401C60622046FFF7F9F8206CAE
:101A0000C1071CD115E084F83D6025644169C943D4
:101A1000490605D40069616A0870606A401C60620A
:101A20002068016821F0010101602046FEF7C6FF31
:101A3000E5E7810703D4410701D4000704D52068F6
:101A4000416821F4E061416094F83D00216C490750
:101A50000BD5282809D10648E062256384F83D604B
:101A600084F83E502046FFF789F970BD61180008E0
:101A70000000FFFF10B5C26A438D0168042B06D039
:101A8000438D032B08D0438D022B1DD012E04A68F2
:101A900022F480624A600CE04B6823F480634B6060
:101AA000042A06D0022A04D001680A6822F480625F
:101AB0000A6001680969426A1170416A491C416201
:101AC000418D491E418510BD012A30D0102A2ED0EB
:101AD000042A30D0022A2ED00A6842F400720A602A
:101AE00001680969426A1170416A491C4162428D6C
:101AF000521E4285026812690A70416A491C41629D
:101B0000418D491E418501684A6822F440724A604D
:101B1000202180F83D1090F83E200021402A80F8D6
:101B20003E100CD012210163FFF729F910BD0A689D
:101B300022F48062D3E70A6842F48062CFE701634F
:101B4000FFF71FF910BD000038B590F83D102229AD
:101B500014D1418D032912D901680969426A1170B3
:101B6000416A491C4162418D491E4185418D0329CD
:101B700004D10068416821F48061416038BDC26AC7
:101B8000022AFBD0012901D00029F7D1274946F2CA
:101B9000A81300220968B1FBF3F101EB8101009168
:101BA00001682023009C641E009422D00C68A405C8
:101BB000F8D40C6824F480640C6001684C6824F448
:101BC000E0644C6001680969446A2170416A491CFB
:101BD0004162418D491E418580F83D3090F83E10AC
:101BE00080F83E2040291DD012210163FFF7C7F87D
:101BF00038BD046C44F0200404644C6824F4E064B0
:101C00004C6001680969446A2170416A491C41625B
:101C1000418D491E418580F83D3080F83E20FEF719
:101C2000E7FF38BD0263FFF7ACF838BD1C000020A9
:101C300010B5C26A90F83D1021290BD1418D51B1E8
:101C4000416A026809781161416A491C4162418D0B
:101C5000491E418510BD20230021082A13D0202AC7
:101C600011D012F5803F0ED00268546824F4E0646D
:101C700054601122026380F83E1080F83D3000BFAE
:101C8000FFF77EF810BD0268546824F4E0645460E5
:101C90000268146844F400741460016380F83D30F5
:101CA00090F83E2080F83E10402AE9D1FFF76AF80C
:101CB00010BD000010B590F83D1090F83E30C26A9B
:101CC000048DB4B1212903D0402B11D122290FD189
:101CD000418DE1B390F83E10402942D0416A02683C
:101CE00009781161416A491C4162418D491E418553
:101CF00010BD2129E8D120230021082A13D0202A51
:101D000011D012F5803F0ED00268546824F4E064CC
:101D100054601122026380F83E1080F83D3000BF0D
:101D2000FFF72EF810BD0268546824F4E064546094
:101D30000268146844F400741460016380F83D3054
:101D400090F83E2080F83E10402AE9D100E002E001
:101D5000FFF718F810BD0068416821F48061416008
:101D600010BDBDE8104000F0F3B8000078B590F861
:101D70003E50C26A046B90F83D6000230168222E39
:101D800073D1066D0EB9402D6FD0056D1DB9056973
:101D9000B5F5404F1BD0458D95B3468D484D012E6E
:101DA00020D0448D022C4DD00C6844F480640C602B
:101DB00001684C68240579D5AA4273D0012A71D0F4
:101DC000082A6FD0102A6DD0202A6BD06EE04A69A5
:101DD0008A6900920A6842F480720A60016D491CA7
:101DE000016578BDAA4214D10A6822F480620A60B3
:101DF00001684A68120504D50A6822F4806217E077
:101E0000FFE74A698A6900920A6842F400720A6030
:101E100050E0082A10D0202A0ED0122C0AD0042A12
:101E200003D0022A01D0102AE6D10A6842F4806267
:101E30000A603BE0012ADFD00A6822F480620A606F
:101E40000168DEE7042A11D0022A0FD0102A0DD033
:101E50000C6844F400640C6001684C698C6900945F
:101E60000C6824F480640C6008E025E00C6844F4FD
:101E700080640C6001684C698969009101684C6854
:101E8000240517D5AA4207D0012A05D0082A03D075
:101E9000102A01D0202A0DD14A6842F480524A60AB
:101EA00008E0FFE74A6842F480524A6001684A69E4
:101EB00089690091036578BD48698869009078BD9B
:101EC0000000FFFF90F83E10402910D00169B1F5E5
:101ED000804F19D0016DA9B3016D012910D1416C5A
:101EE0005FF0F10201F4407142EAD11106E0016DA8
:101EF0000029416C05D0C9B241F0010100680161BF
:101F0000704701F0FE01F9E790F83D102129416C7E
:101F100009D0C9B241F0010102681161416B29B1D8
:101F2000896A49B902E001F0FE01F5E7816B0029F9
:101F3000E6D0896A0029E3D00068416841F4006175
:101F400041607047FFE7416CF02201F44071CBE73C
:101F500010B590F83D10026D22B3026D012A2FD00A
:101F6000026D022A1DD122292FD0428D0AB12129CA
:101F700033D0428D002A14D1212912D101684A6838
:101F800022F4E0624A6001680A6842F400720A6062
:101F900000210163202280F83D2080F83E10FEF7EA
:101FA000F1FE10BDC16C0129816C02D0C1F3072183
:101FB00008E00268C9B21161016D891C016510BD9C
:101FC000816CC9B20268116104E001680A6842F4D8
:101FD00080720A60016D491CF0E7416A0268097865
:101FE0001161416A491C4162418D491E418510BD04
:101FF00038B50C4690F83D2000212825954302680D
:102000000B4605D051699169009180F83C3038BD8C
:10201000556825F480655560E243540700D50121D9
:10202000120601D5828900E0028B80F83C3092B222
:10203000FEF7C5FC38BD0000F8B590F83D600446D9
:102040000068416821F4E061416020680025416931
:102050000091016841F0010101602068016821F4EC
:102060008061016020684168090520D5474F222E14
:1020700048D02A2E46D0616B096849686185618D18
:1020800019B1216C41F004012164416821F400611F
:102090004160606BFEF7A4FA012808D0606B4763CB
:1020A000606BFEF751FA10B1606B416B8847608D31
:1020B00008B320684169C943490708D40069616AC7
:1020C0000870606A401C6062608D401E60852068F8
:1020D0004169C943490608D40069616A0870606AA9
:1020E000401C6062608D401E6085608D18B1206C60
:1020F00040F004002064206C00B32046BDE8F840A6
:10210000FFF70CBCA16B096849686185618D19B145
:10211000216C41F004012164416821F400614160B7
:10212000A06BFEF75DFA0128C1D0A06B4763A06BDE
:10213000FEF70AFA0028BAD0A06BB6E72A2E06D11D
:102140002563282084F83D002046FEF753FE94F8CE
:102150003D10202028290DD0216B222901D0222ECC
:1021600007D1256384F83D0084F83E502046FEF7F1
:1021700041FEF8BD0649E162256384F83D0084F81C
:102180003E502046FEF7FAFDF8BD00006118000839
:102190000000FFFF10B500F02DF9082000F08BF9CA
:1021A00000F00AF9082000F086F900F037F908205D
:1021B00000F081F900F008F9BDE81040082000F0B7
:1021C0007AB900002DE9FF4101248020CDE9000407
:1021D0000D4E0325694603953046FEF7EFFA0122BE
:1021E000D70339463046FEF7DEFB4020CDE9000438
:1021F000694603953046FEF7E1FA0122394630463A
:10220000FEF7D1FBBDE8FF81000C014070B506462A
:10221000FFF7C0FF7020FEF7F5F800F0A7F8304692
:10222000FEF7F0F800F0A2F80020FEF7EBF800F05F
:102230009DF80020FEF7E6F800F098F800F045F968
:102240000520FEF72CF9FFF7A5FF7120FEF7DAF85D
:1022500000F08CF8FDF7DCFF00F0F5F8FDF7D8FF93
:10226000054600F0F0F8FDF7D3FF044600F007F94B
:1022700000F02BF90A20FEF712F9FFF78BFF702010
:10228000FEF7C0F800F072F846F0B000FEF7BAF8BA
:1022900000F06CF82846FEF7B5F800F067F8204625
:1022A000FEF7B0F800F062F8BDE8704000F00DB93C
:1022B0000D4808B5416941F00101416140690022C2
:1022C00000F00100009011460E20FEF7FBFD0E20ED
:1022D000FEF7EAFD002211460F20FEF7F3FDBDE8F0
:1022E00008400F20FEF7E0BD001002400D4810B579
:1022F0000B4901600C49416000214FF4804281602C
:10230000C0E9031241618161C1610162FEF772FCA3
:10231000002803D0BDE81040FEF7F0B810BD000063
:102320000054004024000020A08601000C4810B595
:102330000A4901604FF4E1314160002181600C22C3
:10234000C160C0E904128161C161FFF785F900280D
:1023500003D0BDE81040FEF7D1B810BD00380140F1
:1023600078000020FEE7FEE77047000070B500240B
:1023700000F02AF800F030F8082000F09CF800F097
:102380001BF8082000F097F80A4D01E0641CA4B285
:1023900080212846FEF702FB08B1642CF6D3642C9A
:1023A00006D000F011F8082000F085F8012070BD7B
:1023B000002070BD000C0140012240210148FEF7C1
:1023C000F2BA0000000C0140002240210148FEF753
:1023D000EABA0000000C01401FB5002001908020E7
:1023E00000900320039069460148FEF7E7F91FBDFE
:1023F000000C01401FB501200190802000900320B7
:10240000054C039069462046FEF7D8F90122802149
:102410002046FEF7C8FA1FBD000C01401FB5012081
:102420000190802000900320054C039069462046CF
:10243000FEF7C4F9002280212046FEF7B4FA1FBD42
:10244000000C0140704710B5FFF7BEFF082000F0F8
:1024500032F8FFF7E3FF082000F02DF8FFF7ACFF9C
:10246000082000F028F8FFF7AFFF082000F023F85D
:10247000FFF7B2FFBDE81040082000F01CB810B50F
:10248000FFF7A2FF082000F016F8FFF7B3FF0820BF
:1024900000F011F8FFF790FF082000F00CF8FFF7AC
:1024A00093FF082000F007F8FFF7B8FFBDE81040E1
:1024B0000820AFF3008000B5801E020004D0012088
:1024C000FEF719F8521EFAD100BD10B5FFF7A6FFAE
:1024D0000820FFF7F0FFFFF76FFF0820FFF7EBFF83
:1024E000FFF788FFBDE810400820FFF7E4BFFEF7C4
:1024F00083BC30B58FB028216846FDF71AFE142141
:102500000AA8FDF716FE01210804CDE900100024F9
:10251000029402250491CDE907504FF4E010099090
:102520006846FEF7EDFD08B172B6FEE70F20CDE973
:102530000A054FF48060CDE90C4002210AA80E94F0
:10254000FEF7F2FC002801D072B6FEE70FB030BDF6
:10255000704710B5406A0021C185C184FEF775FF40
:1025600010BD0168CA6822F49072CA6001684A69A5
:1025700022F001024A61016B012904D10168CA6895
:1025800022F01002CA60202180F83E100021016371
:10259000704708B590F83E10222901D0022008BDEE
:1025A00082684FF480539A4201D1016921B1816A56
:1025B0009A421BD04AB10AE00268816A5268C2F3AB
:1025C00008020A80816A891C08E0026972B1026807
:1025D000526802F07F020A70816A491C8162C18DD3
:1025E000491E0904090CC18503D019E0026852682C
:1025F000F1E70168CA6822F02002CA600168CA686F
:1026000022F48072CA6001684A6922F001024A61BC
:10261000202180F83E10016B012903D0FFF7BCF8A0
:10262000002008BD002101630168CA6822F0100281
:10263000CA6001680A68D20602D50A684968009132
:10264000818DFEF701FFEBE770B504460068016974
:10265000E26821F44051114301612169A0680843F7
:10266000616908432168CA6841F20C639A430243D6
:10267000CA6020684169A26921F440711143416137
:102680001E492068884202D1FEF7F4FC01E0FEF703
:10269000E1FC00EBC00101EB0012606864218000E6
:1026A000B2FBF0F3B3FBF1F36FF018067343B2FB28
:1026B000F0F5B2FBF0F605EB8305322303EB0515CD
:1026C000B5FBF1F5B6FBF1F605F0F00505EB0615E7
:1026D000B2FBF0F6B2FBF0F0B0FBF1F06FF01802D5
:1026E000504306EB800003EB0010B0FBF1F02168D3
:1026F00000F00F002844886070BD000000380140E1
:102700002DE9F041984617460E460446069D1DE009
:10271000681C1BD02DB1FEF74BF9A0EB0800A842B6
:1027200014D92068C16821F4D071C1602068416962
:1027300021F001014161202084F83D0084F83E0031
:10274000002084F83C000320BDE8F0812068006888
:1027500036EA000004D00020B842D9D00020F3E7C8
:102760000120F9E70148FEF771BE00007800002063
:10277000FEE700000FB4054B10B503A9044A029808
:1027800000F028F810BC5DF814FB00008D2900084B
:10279000200000200907090E002804DB00F1E020DA
:1027A00080F80014704700F00F0000F1E02080F87E
:1027B000141D704702E008C8121F08C1002AFAD190
:1027C00070477047002001E001C1121F002AFBD1B1
:1027D000704700002DE9FF4F8BB09A460F46054623
:1027E000002606E025280BD052460D9990476D1C17
:1027F000761C28780028F5D10FB03046BDE8F08F60
:102800000024A0460122604900E0044315F8013F7E
:10281000203B02FA03F00842F7D128782E2817D17E
:1028200015F8010F44F004042A280ED06FF02F028F
:102830002878A0F1300109290AD808EB880102EBB9
:10284000410100EB01086D1CF2E757F8048B6D1C89
:10285000287869283ED006DC0028CDD063280BD02C
:10286000642804D136E0732810D075284BD0524626
:102870000D999047761C85E017F8040B8DF8000041
:1028800000208DF80100E946012003E057F8049B81
:102890004FF0FF3061074FF0000401D40AE0641CE0
:1028A00044450DDA8442FADB19F804100029F6D108
:1028B00006E0641C8442FCDB19F804100029F8D1FE
:1028C000264404E019F8010B52460D999047641E06
:1028D000F8D257E001CF4FF00A0B002802DA40424D
:1028E0002D2102E0210504D52B218DF82410012192
:1028F00003E0E10705D02021F7E70DF12009089159
:102900000CE00021F9E701CF4FF00A0BF9E7594637
:10291000FDF71AFC01F1300209F8012D0028F6D16B
:10292000ADEB090000F1200B600701D44FF0010866
:10293000D84502DDA8EB0B0000E000208046002413
:1029400006E009A85246005D0D999047641C761C6C
:1029500008988442F5DB04E0302052460D999047F8
:10296000761CB8F10001A8F10108F5DC05E019F8C2
:10297000010B52460D999047761CBBF10001ABF15B
:10298000010BF4DC6D1C34E70928010013B54FF688
:10299000FF73012269460548FEF700FF03480068FF
:1029A0000168C9434906FBD400981CBD780000208B
:1029B000FEF72AFAFFF79DFDFFF7B8FCFFF778FC5A
:1029C000FFF794FCFDF7E8FBFDF7E4FCC0F3C10062
:1029D000032804D0FDF70AFD0A20FDF760FD154D20
:1029E000154F0A26A5F1080440F6B8381148FDF73E
:1029F0003FFC28684FF47A714843000D20606868F6
:102A00004900484307EB1050606020680BA290FB20
:102A1000F6F10BA0FFF7AEFE60680CA290FBF6F19A
:102A20000BA0FFF7A7FE0DA0FFF7A4FE4046FDF7A1
:102A3000B3FEDBE7080000200CFEFFFF25000000CE
:102A4000CAAAB6C8A3BA256425730000A1E600008F
:102A5000CEC2B6C8A3BA2564257300000D0A0000D3
:102A6000000000000000000001020304060708093E
:102A70000000000001020304982A00080000002062
:102A800024000000B4270008BC2A0008240000200D
:102A900024050000C427000800000000000000001A
:102AA0000000000000000000010000001000000015
:0C2AB000000000000024F4000000000002
:04000005080000ED02
:00000001FF
